:020000040800F2
:10000000901B002045010008AD010008AF01000869
:10001000B3010008B7010008BB01000800000000A0
:10002000000000000000000000000000BF01000808
:10003000C101000800000000B33E0008C50100082F
:100040005F0100085F0100085F0100085F01000810
:100050005F0100085F0100085F0100085F01000800
:100060005F0100085F0100085F0100085F010008F0
:100070005F0100085F0100085F0100085F010008E0
:100080005F0100085F0100085F0100085F010008D0
:100090005F0100085F0100085F0100085F010008C0
:1000A0005F0100085F0100085F0100085F010008B0
:1000B0005F0100085F0100085F0100085F010008A0
:1000C0005F0100085F0100085F0100085F01000890
:1000D0005F010008D10100085F0100085F0100080E
:1000E0005F0100085F0100085F0100085F01000870
:1000F0005F0100085F0100085F0100085F01000860
:100100005F0100085F0100085F0100085F0100084F
:100110005F0100085F0100085F0100085F0100083F
:100120005F0100085F0100085F0100085F0100082F
:10013000DFF80CD003F04AFF0048004769010008CF
:10014000901B00200648804706480047FEE7FEE770
:10015000FEE7FEE7FEE7FEE7FEE7FEE7FEE7FEE777
:10016000790F00083101000810B500F0BAFF01F066
:10017000ECFA0120084908600220084908600320C1
:10018000074908600423074A0021074803F0B0F933
:1001900001F0FFFB002010BD180000201C00002013
:1001A00020000020FC040020CF120008704700BF90
:1001B000FEE700BFFEE700BFFEE700BFFEE77047B7
:1001C0007047704710B501F01BFC01F0F1FA10BD4B
:1001D00070B58EB020212F4800F075F903F048FE6D
:1001E00006462D480078401C2B490870304603F025
:1001F00043FE40F22551294800F097FD002834D0F5
:10020000264800F012FDC1B225480568681C244A42
:10021000106001A8415510460068401E01A9085C05
:100220004C2804D18DF804000120114608601C48B8
:100230000068401E01A9085C462816D1002404E08D
:1002400001A8005D17490855641C154800688442E0
:10025000F6D300201349124A1268885410490860E6
:1002600001A91148006802F07DFB40F227710B489C
:1002700000F05BFD28B1002240F22771074800F032
:100280006CFC01F095FA2021024800F01AF90EB03A
:1002900070BD0000001801406900002000380140D6
:1002A00008000020A00000204C00002010B50446EB
:1002B000CA48844208D10121042000F025FB002116
:1002C000042000F021FB46E0C548844208D101210A
:1002D000082000F019FB0021082000F015FB3AE08F
:1002E000C048844208D10121102000F00DFB0021FC
:1002F000102000F009FB2EE0BB48844208D1012108
:10030000202000F001FB0021202000F0FDFA22E077
:10031000B648844208D10121402000F0F5FA0021BE
:10032000402000F0F1FA16E0B148844208D10121E2
:10033000802000F0E9FA0021802000F0E5FA0AE0D0
:10034000AC48844207D10121801500F0DDFA00217C
:10035000A01500F0D9FA10BD10B50121084600F033
:10036000D3FA0021012000F0CFFA10BD2DE9F041B1
:10037000024600250026002000230024002791F8D3
:1003800003C00CF00F0591F803C01CF0100F03D050
:1003900091F802C04CEA0505B1F800C01CF0FF0F4F
:1003A00031D0146800202BE04FF0010C0CFA00F360
:1003B000B1F800C00CEA03069E4220D183004FF042
:1003C0000F0C0CFA03F7BC4305FA03FC4CEA0404D7
:1003D00091F803C0BCF1280F06D14FF0010C0CFAC4
:1003E00000FCC2F814C00AE091F803C0BCF1480F49
:1003F00005D14FF0010C0CFA00FCC2F810C0401CF3
:100400000828D1D31460B1F800C0BCF1FF0F34DD6F
:10041000546800202EE000F1080C4FF0010808FAA3
:100420000CF3B1F800C00CEA03069E4221D1830010
:100430004FF00F0C0CFA03F7BC4305FA03FC4CEA2F
:10044000040491F803C0BCF1280F05D100F1080C99
:1004500008FA0CF8C2F8148091F803C0BCF1480FF8
:1004600007D100F1080C4FF0010808FA0CF8C2F8A7
:100470001080401C0828CED35460BDE8F0814FF6B0
:10048000FF710180022181700421C1707047024612
:10049000002093680B4201D0012000E0002070474B
:1004A0000146886880B2704702460020D3680B423C
:1004B00001D0012000E0002070470146C86880B2EA
:1004C000704701617047416170470AB1016100E006
:1004D00041617047C16070474FF480320A438261C6
:1004E0008161826182698269704702460020424BC5
:1004F00018684FF68073184040EA021008433E4BDC
:10050000186070473D49C8617047F0B50A4600233E
:1005100000240021002500F00046B6F1004F02D172
:10052000354EF16901E0344E7168C0F3034583B282
:1005300000F44016B6F5401F08D121F070612E4E30
:10054000766826F070662C4F7E6012E000F480160C
:10055000B6F5801F06D1032606FA05F4A14341F043
:10056000706106E0460D360103FA06F6B14341F02C
:10057000706122B1460D360103FA06F6314300F0F0
:100580000046B6F1004F02D11B4EF16101E01A4E58
:100590007160F0BD30B500228B071C0F0F2303FAEA
:1005A00004F2154B08338C1053F824309343124C4B
:1005B00008348D1044F8253023468C1053F824302D
:1005C0008C07240F00FA04F423430B4C08348D10DD
:1005D00044F8253030BD0A490860704700080140E2
:1005E000000C0140001001400014014000180140BF
:1005F000001C01400020014000000140000020429A
:10060000DC002042DC48006840F00100DA49086064
:1006100008464068D9490840D749486008460068FC
:10062000D7490840D44908600846006820F4802073
:1006300008600846406820F4FE0048604FF41F0040
:1006400088607047CC49096821F48031CA4A11603A
:100650001146096821F480211160B0F5803F03D074
:10066000B0F5802F0ED106E0C349096841F480310E
:10067000C14A116007E0C049096841F4A021BE4A9F
:10068000116000E000BF00BF704710B501460022B6
:10069000002300204A11012A02D1B74C236806E04A
:1006A000022A02D1B44C236A01E0B34C636A01F020
:1006B0001F02012494401C4201D0012000E00020D0
:1006C00010BD70B500240025002600BF3120FFF7C3
:1006D000DCFF0646641CB4F5A06F01D0002EF5D0F7
:1006E0003120FFF7D2FF08B1012500E000252846A0
:1006F00070BD01460020A04A106820F0F80040EAD2
:10070000C100106070479F49086070470246002092
:10071000994B586820F47C1042EA01031843964B29
:100720005860704797490866704701460020924A12
:10073000506820F003000843506070478E484068BE
:1007400000F00C007047014600208B4A506820F0F2
:10075000F00008435060704701460020864A506808
:1007600020F4E06008435060704701460020824A50
:10077000506820F4605040EAC1005060704729B1D1
:100780007D4A527A02437C4B5A7206E07A4A527A88
:10079000C343DBB21A40784B5A7270477A490860FB
:1007A000704701460020744A506820F440400843D6
:1007B000506070470021754A11706F4A82F820100E
:1007C000012802D0042808D103E001216F4A1170EA
:1007D00004E005216D4A117000E000BF00BF7047C2
:1007E0006B49086070476449096A0143624A1162B3
:1007F0007047674944390860704730B500210022CE
:10080000002400235C4D6D6805F00C0121B1042922
:1008100005D0082923D105E05E4D056022E05D4D3D
:1008200005601FE0544D6D6805F47012524D6D68FF
:1008300005F48034022505EB92421CB9564D554310
:1008400005600BE04C4D6D6815F4003F03D0524D30
:100850005543056002E04F4D5543056002E04D4DA4
:10086000056000BF00BF444D6D6805F0F001090947
:100870004A4D6B5C0568DD4045603F4D6D6805F491
:10088000E061090A454D6B5C4568DD4085603A4D85
:100890006D6805F46051C90A404D6B5C4568DD40E8
:1008A000C560354D6D6805F44041890B3C4D6B5C6E
:1008B000C568B5FBF3F5056130BD29B12E4A526913
:1008C00002432D4B5A6104E02B4A526982432A4B62
:1008D0005A61704729B1284A92690243264B9A61AE
:1008E00004E0254A92698243234B9A61704729B1FB
:1008F000214AD2690243204BDA6104E01E4AD269E0
:1009000082431D4BDA61704729B11B4AD26802430A
:10091000194BDA6004E0184AD2688243164BDA6059
:10092000704729B1144A12690243134B1A6104E05B
:10093000114A12698243104B1A61704714494039B9
:10094000086070470F49C86470470B49C871704709
:100950000948406A40F08070074948627047014684
:100960000020054A92680A4201D0012000E00020E0
:100970007047014988727047001002400000FFF87C
:10098000FFFFF6FE00004242D80042422010024023
:100990008004424200127A0000093D002400002039
:1009A0003400002010B50446FC48844209D10121DE
:1009B0008803FFF7A9FF00214FF48040FFF7A4FF51
:1009C00032E0F748844209D101214804FFF7A9FF2A
:1009D00000214FF40030FFF7A4FF25E0F1488442E6
:1009E00009D101218804FFF79CFF00214FF48020EA
:1009F000FFF797FF18E0EC48844209D10121C804B1
:100A0000FFF78FFF00214FF40020FFF78AFF0BE074
:100A1000E648844208D101210805FFF782FF002142
:100A20004FF48010FFF77DFF10BD2DE9F04786B031
:100A300005460E460024A24600BFA1460027B08905
:100A400000B100BF2F462C8A4CF6FF700440F0889E
:100A500004432C82AC894EF6F3100440B0883189EF
:100A60000843718908430443AC81AC8A4FF6FF40C8
:100A70000440B0890443AC8201A8FFF7BEFEC7481A
:100A8000874202D1DDF810A001E0DDF80CA0A889B2
:100A900010F4004F08D00AEBCA0000EB0A103168CE
:100AA0004900B0FBF1F807E00AEBCA0000EB0A10BE
:100AB00031688900B0FBF1F86420B8FBF0F0040164
:100AC0002009642101FB1089A88910F4004F08D087
:100AD000322000EBC900B0FBF1F000F00700044346
:100AE00008E0322000EB09106421B0FBF1F000F0C7
:100AF0000F0004432C8106B0BDE8F0874FF4165177
:100B0000016000218180C18001810C21418100218F
:100B10008181704710B502460020108A4FF2FF0312
:100B200018400B884C8823438C882343CC8823436C
:100B30001843108210BD0021018041808180C18056
:100B4000704721B1828942F40052828104E0828997
:100B50004DF6FF731A4082817047F0B503460024BA
:100B6000002600250020A1F510676A3F00D100BFD4
:100B70001846C1F3421401F01F06012707FA06F5D3
:100B8000012C01D10C3004E0022C01D1103000E026
:100B900014301AB107682F43076002E00768AF43BB
:100BA0000760F0BD10B51AB1838A0B43838204E05D
:100BB000838ACC43A4B22340838210BD028A4FF6BD
:100BC000F0731A400282028A0A43028270478289C5
:100BD0004FF2FF731A40828182890A4382817047F3
:100BE00021B1828942F00202828104E082894FF6BB
:100BF000FD731A4082817047028A4FF6DF731A40F4
:100C00000282028A0A430282704721B1028A42F4B8
:100C10008042028204E0028A4BF6FF731A4002828D
:100C20007047C1F308028280704701468888C0F38C
:100C300008007047818941F0010181817047028B72
:100C4000D2B20283028B42EA012202837047028BF6
:100C500002F47F420283028B0A430283704721B170
:100C6000828A42F02002828204E0828A4FF6DF7399
:100C70001A408282704721B1828A42F01002828239
:100C800004E0828A4FF6EF731A408282704721B1E6
:100C9000828A42F00802828204E0828A4FF6F77369
:100CA0001A408282704721B1828942F400428281D7
:100CB00003E08289C2F30E028281704721B1828AE9
:100CC00042F40062828204E0828A4FF2FF731A408B
:100CD00082827047828A4FF6FB731A408282828A30
:100CE0000A438282704721B1828A42F002028282E4
:100CF00004E0828A4FF6FD731A40828270470246F2
:100D00000020B1F5007F00D100BF13880B4201D055
:100D1000012000E00020704701F40072B2F5007F6E
:100D200000D100BFCA430280704770B5024600245C
:100D3000002300250020A1F510666A3E00D100BF07
:100D4000C1F3421501F01F03012606FA03F3012D3A
:100D500002D19689334006E0022D02D1168A334033
:100D600001E0968A33400C12012606FA04F4168834
:100D7000344013B10CB1012000E0002070BD10B56B
:100D800000220023A1F510646A3C00D100BF0A12C2
:100D900001249440A3B2DC43048010BD003801401C
:100DA0000044004000480040004C0040005000401B
:100DB00030B504460D46E1B20548FFF732FF00BFEB
:100DC00040210348FFF79BFF0128F9D1204630BDA1
:100DD0000038014031490143314A1160704770B514
:100DE000002100230F22C4780CB32D4C246804F496
:100DF000E064C4F5E064210AC1F10403CA40447808
:100E000004FA03F18478144021430901254C067843
:100E1000A155047804F01F050124AC4005786D113C
:100E20004FF0E02606EB8505C5F8004109E004789F
:100E300004F01F050124AC401B4D0678761145F8DF
:100E4000264070BD194A0A400243154B1B1F1A6009
:100E5000704739B1124A121D12680243104B1B1D14
:100E60001A6006E00E4A121D126882430C4B1B1DCD
:100E70001A607047042808D14FF0E021096941F059
:100E800004014FF0E022116107E04FF0E021096911
:100E900021F004014FF0E022116170470000FA05D3
:100EA0000CED00E000E400E080E100E080FFFF1FC7
:100EB00000210020674A126842F48032654B1A60B4
:100EC00000BF644A126802F40030491C10B9B1F541
:100ED000A06FF6D15F4A126812F4003F01D00120E2
:100EE00000E00020012842D15B4A126842F0100263
:100EF000594B1A601A46126822F003021A601A4609
:100F0000126842F002021A60524A5268514B5A600B
:100F10001A4652685A601A46526842F480625A6011
:100F20001A46526822F47C125A601A46526842F4F9
:100F3000E8125A601A46126842F080721A6000BFC6
:100F4000444A126812F0007FFAD0424A526822F0F6
:100F50000302404B5A601A46526842F002025A603D
:100F600000BF3C4A526802F00C02082AF9D17047CF
:100F700010B5FFF79DFF10BD10B53648006840F072
:100F80000100344908600846406834490840314946
:100F9000486008460068324908402E490860084603
:100FA000006820F4802008600846406820F4FE00B5
:100FB00048604FF41F008860FFF7DAFF4FF00060D1
:100FC0002849086010BD10B5002100200022214BE7
:100FD0005B6803F00C0121B1042906D0082928D14F
:100FE00007E0214B214C236027E01F4B1F4C23605F
:100FF00023E0184B5B6803F47010164B5B6803F436
:101000008032022303EB904022B9194B4343174C23
:1010100023600DE00F4B5B6813F4003F04D0144BCA
:101020004343124C236003E00F4B43430F4C2360B8
:1010300003E00D4B0D4C236000BF00BF054B5B6808
:10104000C3F303130B4CE15C084B1B68CB40074C0C
:10105000236010BD00100240002002400000FFF895
:10106000FFFFF6FE08ED00E000127A0038000020D5
:1010700000093D003C00002008B525208DF8000047
:1010800000208DF801008DF8020001208DF803008A
:101090006846FFF7A4FE08BD30B51849B1F1807F5E
:1010A00000D31DE021F07F40401E4FF0E022506150
:1010B00050170F22002807DA13071D0E104B00F0FF
:1010C0000F04241F1D5503E013071C0E0D4B1C5469
:1010D00000BF00204FF0E02290610720106100BFA8
:1010E00030BD10B5FFF748FFFFF7D6FF00F00CF852
:1010F00000F024F8FFF7C0FF10BD00004019010008
:1011000018ED00E000E400E008B501214020FFF701
:10111000E1FB3C20ADF8000010208DF80300032017
:101120008DF8020069460448FFF720F93C21024887
:10113000FFF7C7F908BD00000018014000B585B0F1
:10114000012144F20400FFF7C5FB01210846FFF727
:10115000C1FB4FF40070ADF8100018208DF813009B
:1011600003208DF8120004A91948FFF7FFF84FF487
:101170008060ADF8100004208DF8130004A9144815
:10118000FFF7F4F84FF4E13000900020ADF80400D0
:10119000ADF80600ADF80800ADF80C000C20ADF875
:1011A0000A0069460B48FFF740FC012240F2255136
:1011B0000848FFF7D2FC012240F227710548FFF7EB
:1011C000CCFC01210348FFF7BCFC05B000BD0000CA
:1011D000000801400038014008E000231A460121C0
:1011E000184602F023FD57A002F064FFF5E708B5AA
:1011F00038E06A460A215948006801F0E6FA0446D8
:1012000020784C280DD1607831280AD1E01C02F0FA
:1012100081FE534908600846016852A002F04AFF67
:1012200020E020784C280DD1607832280AD1E01CCB
:1012300002F070FE524908600846016851A002F0B1
:1012400039FF0FE020784C280CD16078332809D181
:10125000E01C02F05FFE524908600846016851A098
:1012600002F028FFC5E717E010215548FFF72BF9DA
:1012700000234B480068C2B21946184602F0D6FC5B
:1012800010214F48FFF71DF9002345480068C2B2FE
:101290001946184602F0CAFCE6E717E0082148485C
:1012A000FFF711F9002336480068C2B21946184604
:1012B00002F0BCFC08214248FFF703F90023304844
:1012C0000068C2B21946184602F0B0FCE6E70020FA
:1012D00001F0DEF92149086007233A4A0021AFF204
:1012E000450002F005F90623374A0021AFF28900D4
:1012F00002F0FEF80523354A0021354802F0F8F8DF
:101300000823344A0021AFF22F1002F0F1F817E061
:1013100004212B48FFF7D7F8002311480068C2B218
:101320001946184602F082FC04212548FFF7C9F847
:1013300000230B480068C2B21946184602F076FC3A
:10134000E6E700000D0A2074686973206973206164
:1013500020436F6D207461736B0D0A004C000020F8
:10136000180000200D0A204C4544312025642073CC
:1013700020BCE4B8F4C9C1CBB821200D0A0000009C
:101380001C0000200D0A204C4544322025642073A7
:1013900020BCE4B8F4C9C1CBB821200D0A0000007C
:1013A000200000200D0A204C454433202564207382
:1013B00020BCE4B8F4C9C1CBB821200D0A0000005C
:1013C000001801403C0600207C070020BC080020DB
:1013D000EF110008FC0900200246002005E011F88A
:1013E000013B02F8013B431CD8B20B78002BF6D12D
:1013F000137070472DE9F04105460E46144600274C
:1014000014B90020BDE8F0811DB90420207000202F
:10141000F8E71EB90C2020700020F3E7FE480078A2
:10142000002803DD112020700020EBE72878012838
:1014300008D0022807D0032802D0042804D100E0F5
:1014400000BF00BF00BF03E0012020700020D9E7EB
:1014500000BF02F00DFD074605F10F013046FFF712
:10146000BBFF8046384602F007FD00202070404652
:10147000C8E70146002002E0491C421CD0B20A78AD
:10148000002AF9D170472DE9F04105460E46144671
:101490004FF000080CB9BDE8F08115B904202070A8
:1014A000F9E716B90C202070F5E7DB480078002832
:1014B00002DD12202070EEE72878012808D00228EB
:1014C00007D0032802D0042804D100E000BF00BFE9
:1014D00000BF02E001202070DDE700BF02F0C8FC81
:1014E00080463046FFF7C5FF07460F2F05DD404613
:1014F00002F0C2FC0B202070CDE7314605F10F0051
:10150000FFF76AFF404602F0B7FC0020207000BFE2
:10151000C1E77CB5002514E06946284602F077FA59
:10152000064666B9BD4850F8254044B1012C06D0A6
:10153000D4E9020100EB8100206401986064681C1A
:10154000C5B21F2DE8DD7CBD002402E0C82002F0FA
:101550003DFBB34800780028F8D0B2480068642109
:10156000B0FBF1F0AF4908600846006828B90020D8
:10157000AD490870FF2002F095FA00BF02F078FC38
:101580000446AA480068AA4908600020A7490860E4
:10159000204602F071FCA6480068A2490968B0FB29
:1015A000F1F0C0F16400A049087002F010FCFFF7F0
:1015B000B0FF642002F00AFBE0E700B587B003202B
:1015C000002180229B4BCDE90132CDE903104FF67B
:1015D000FE701E23984A0090AFF2930001F0E4FFE2
:1015E00006AA96A11E2002F06EF907B000BD0024E5
:1015F00000BF02F03DFC04468C480068401C8B494B
:101600000860204602F038FC02F0E0FBF1E700B58C
:1016100087B00320002180228C4BCDE90132CDE937
:1016200003104FF6FF701F23894A0090AFF241006C
:1016300001F0BAFF06AA87A11F2002F044F907B003
:1016400000BD04E0002200F8012B4A1E91B20029DF
:10165000F8DC704730B54FF4A0718248FFF7F1FF16
:10166000804B03F1200500240AE0002018705D6023
:101670003F20D8730021197420332035601C84B2B8
:10168000092CF2DB0020187058603F20D87300212D
:10169000197474487449086030BD30B54FF4C661A0
:1016A0007248FFF7CEFF80215C48FFF7CAFF6F4BFF
:1016B00003F1580500240AE05D613F2083F84800EB
:1016C00000214920C15458335835601CC4B2112C34
:1016D000F2D3002058613F2083F8480000214920C0
:1016E000C15400206249086060486249086030BD0A
:1016F0000022614B1A706149002004E0002201F8C9
:10170000012B421CD0B20428F8DB00225C4B1A707B
:101710005C4B1A705C4B1A605C4B1A60704700207F
:101720005B4908603C4908705A4908705A4908707A
:101730005A4908705A4908603C4908603C490860A9
:101740003849086036490870704710B502F03AFB16
:10175000FFF7E5FFFFF7CCFFFFF79FFFFFF77AFFEB
:1017600000F057FF01F0BFFA01F0FBFDFFF74FFF5C
:10177000FFF723FF02F027FB10BD4848007801283F
:1017800008D125480078FF2804D223480078401C5F
:101790002149087070474349374A1278885C3749B5
:1017A000095C404A515C01EBC001364A1170704738
:1017B00010B500243948007801287BD102F058FB8D
:1017C000044615480078002804DD13480078401EC0
:1017D0001149087010480078E0B92E480078C8B95F
:1017E000FFF7D9FF274800782549097888425ED05D
:1017F0000A482449097850F821002349086008461E
:101800000068406B401C0968486325480068401C1C
:10181000234949E04BE04DE069000020CC0F002057
:1018200068000020600000205C00002074000020A0
:1018300064000020CC0B0020C80D002075432F4F02
:10184000532D49492053746174000000CC0D0020D1
:10185000C80F002075432F4F532D49492049646C10
:1018600065000000000A0020540000204C100020F9
:10187000840000207C0000206D0000206E0000200D
:101880006B0000206C000020800000207800002009
:10189000940000206A0000207300002072000020E5
:1018A000500000204C420008086002F0FDFA20467B
:1018B00002F0E2FA10BD10B50024FE4800780128BD
:1018C00011D102F0D5FA0446FB48007840B9FB4834
:1018D0000078FF2804D2F9480078401CF7490870C6
:1018E000204602F0C9FA10BD10B5002402F0C0FA7B
:1018F0000446F1480078F0B9F0480078D8B9FFF70D
:101900004AFFEF480078EF490978884213D0EE4843
:10191000EB49097850F82100EC4908600846006856
:10192000406B401C09684863E9480068401CE8496E
:10193000086002F0B4FA204602F09EFA10BD10B51D
:101940000024DC480078012822D102F091FA0446F4
:10195000DA480078002818DDD8480078401ED749BA
:1019600008700846007860B9D348007828B9204646
:1019700002F082FAFFF7B8FF0AE0204602F07CFA94
:1019800006E0204602F078FA02E0204602F074FAFF
:1019900010BD10B5C748007890B9FFF7FCFEC848E5
:1019A0000078C8490870C848C549097850F821002E
:1019B000C649086008460068C649086002F05FFA38
:1019C00010BD10B50024022002F000F902F050FA18
:1019D00004460020C0490860204602F04DFA642009
:1019E00002F0F4F802F044FA0446BB480068BB4930
:1019F00008600120BA490870204602F03DFA10BD87
:101A000070B5002602F033FA02F032FA0646B54805
:101A10000068401CB3490860304602F02DFAA54822
:101A20000078012858D1B048007820B1012804D0AE
:101A3000022809D103E001250BE0002509E001257A
:101A40000120A949087004E001250020A64908707A
:101A500000BF00BF05B970BDA448046838E002F0BB
:101A600007FA0646608D78B3608D401E0004000CB6
:101A7000608529D194F82C0010F0370F09D014F8A4
:101A80002C0F20F03700207001206070A4F12C048E
:101A900002E0002084F82D0094F82C0010F0080FCC
:101AA00012D104F13004A0789149097840EA01008C
:101AB0008F49087020788F49085C617840EA0100FE
:101AC00014F830198B4A50546469304602F0D4F946
:101AD00094F82E001F28C2D100BFBCE74FF48F70CE
:101AE0007047704710B590F8302001F10B039B5CF4
:101AF00090F83140A34301F10B04A35423469B5CAF
:101B000023B98B7A90F83240A3438B7210BD2DE934
:101B1000F04F05460F4690469946A87A76490E5CE6
:101B200005F10B00805D11F800B00BEBC60000F072
:101B3000FF0A654850F82A40002004F12004608123
:101B40002760207B20EA0800207384F80D90207B1A
:101B5000A4F1200410F0080F0DD194F8320064496C
:101B600009780843624908706248805D94F8311032
:101B700008436049885529462046FFF7B3FF504681
:101B8000BDE8F08F10B5534A1268D061514A12680F
:101B900092F8303000F10B02D25C4E4B1B6893F888
:101BA00031301A434B4B1B6893F8304000F10B0364
:101BB0001A55827A474B1B6893F832301A43827267
:101BC000444A126892F830104A4A525C414B1B68F2
:101BD00093F831309A43474B5A541A46525C42B9F3
:101BE0003C4A126892F83230414A12789A43404B8C
:101BF0001A7010BD0023837200F10B01002204E073
:101C0000002301F8013B531CDAB2042AF8DB7047C9
:101C100005E011F8013B00F8013B531E9AB2002A7F
:101C2000F7DC70472DE9F84F05460E4617469846F3
:101C3000DDE90BABDDF828900020009002F018F9E8
:101C400000902E480468002C7ED054F8140F2B49C5
:101C50000860009802F010F944F8146CA576002092
:101C600020766076E08244F810AC44F8089C44F892
:101C70000C7C24F804BC24F8028CE077E810207770
:101C800005F00700E076217F01208840A077E17E03
:101C90000120884060770020A0602061E060206221
:101CA000A0626062E06220633F2084F83400A4F107
:101CB000140425E072000020690000206A00002062
:101CC0006C0000206B000020CC0F00208000002062
:101CD00050000020780000207400002060000020E8
:101CE000680000209400002088000020840000206C
:101CF0006D0000206E0000204C4200087C00002097
:101D00004FF000014FF049000155204602F0AEF8B7
:101D1000204602F059F802F0ABF800901A4840F85B
:101D200025401A48006860610020A06117480068DB
:101D300010B11648006884611448046004F130044E
:101D4000A0781349097800E019E040EA0100104941
:101D5000087020780F49085C617840EA010014F8A7
:101D600030190C4A50540C48007800F101000A491F
:101D70000870009802F080F80020BDE8F88F009805
:101D800002F07AF84220F8E7CC0F0020840000200F
:101D90006D0000206E000020730000202DE9F05F30
:101DA00004460F4691461E464FF0000B16B9002020
:101DB000BDE8F09F1CB96E2030700020F8E7207855
:101DC000052803D0012030700020F1E709F0800AD7
:101DD000BAF1000F04D029F080094FF0010801E0AA
:101DE0004FF000080020307002F042F88346B9F14D
:101DF000000F2CD0B9F1010F3BD0B9F1020F03D085
:101E0000B9F1030F46D111E0208900EA0705BD4270
:101E100006D1B8F1010F05D12089A843208101E046
:101E200070203070584602F027F83AE0208900EA26
:101E3000070535B1B8F1010F05D12089A8432081EC
:101E400001E070203070584602F016F829E0208931
:101E500027EA0005BD4206D1B8F1010F05D120895E
:101E60002843208101E070203070584602F004F8C9
:101E700017E0208927EA000535B1B8F1010F05D137
:101E800020892843208101E070203070584601F0FD
:101E9000F3FF06E0584601F0EFFF00256F20307099
:101EA00000BF00BF284683E72DE9F04106460D46F6
:101EB000002715B90020BDE8F081FE480078002811
:101EC00003DD102028700020F5E701F0D1FF074660
:101ED000F948046894B100684068F7490860052033
:101EE00020702681002060603F20A0720021E172F6
:101EF000384601F0C1FF0020287004E0384601F0A8
:101F0000BBFF722028702046D5E730B501464A68ED
:101F100008682AB9CC68606028B10025456002E0F5
:101F2000106000B142608B6800255D6230BDF0B585
:101F300006460F46B468002004F12804608027801C
:101F4000207920F0200020714FF00000607120798E
:101F5000A4F12804A8B904F13004A078D74909787D
:101F600040EA0100D54908702078D549085C6178BD
:101F700040EA010014F83019D14A50544FF00105DD
:101F800000E000253046FFF7C0FF2846F0BD2DE9F0
:101F9000F0470446894615464FF0000A15B9204619
:101FA000BDE8F0871CB96E2028702046F8E7C148CC
:101FB0000078002803DD0F2028702046F0E7207805
:101FC000052803D0012028702046E9E701F050FFE2
:101FD0008246606808B1012700E00027B9F1000FD0
:101FE00003D0B9F1010F40D11BE09FB93F20A0728F
:101FF0000021E17200202070AF480068606000207E
:102000002081AD480460504601F036FF0020287062
:10201000002605E0504601F02FFF49202870264693
:102020002AE0D4F8048005E000214046FFF77FFF56
:10203000D8F80080B8F1000FF6D13F20A07200213F
:10204000E172002020709C480068606000202081C0
:1020500099480460504601F00FFF012F01D1FFF7AE
:1020600043FC00202870002606E0504601F004FFE3
:1020700007202870264600BF00BF304690E72DE9B4
:10208000F04105460E461446002714B90020BDE86D
:10209000F0811DB96E2020700020F8E71EB90C20D9
:1020A00020700020F3E783480078002803DD11202A
:1020B00020700020EBE701F0DBFE074628780528BA
:1020C00006D0384601F0D8FE012020700020DEE75F
:1020D00005F10A013046FFF77FF98046384601F0E6
:1020E000CBFE002020704046D1E72DE9F0410546A7
:1020F0000E4614464FF000080CB9BDE8F08115B942
:102100006E202070F9E716B90C202070F5E76948B9
:102110000078002802DD12202070EEE701F0A8FE12
:1021200080462878052805D0404601F0A5FE01200C
:102130002070E2E73046FFF79CF907460F2F05DDD8
:10214000404601F099FE73202070D6E7314605F134
:102150000A00FFF741F9404601F08EFE0020207092
:1021600000BFCAE7F0B51446059E564F3F6897F882
:102170002C7047F02007DFF84CC1DCF800C08CF869
:102180002C700027DFF83CC1DCF800C08CF82D7003
:102190004C4F3F687E854B4F3F6879620C828B7451
:1021A000484F3F688F6047680F6000274F60C860E6
:1021B000456805B169604160424F3F6897F830203B
:1021C0003F4FBF5CDFF8FCC0DCF800C09CF831C0BA
:1021D00027EA0C07DFF8E8C00CF802706746BF5C1E
:1021E0005FB9384F3F6897F832C0344F3F7827EADD
:1021F0000C07DFF8C8C08CF80070F0BD2DE9F04F77
:1022000089B005460F4691469A46129E00200290DC
:1022100016B909B0BDE8F08F1DB96E2030700020EE
:10222000F7E724480078002803DD02203070002002
:10223000EFE725480078002803DD0D2030700020EE
:10224000E7E72878052803D0012030700020E0E778
:1022500009F0800BBBF1000F04D029F080094FF08A
:10226000010801E04FF0000801F002FE0290B9F110
:10227000000F57D0B9F1010F77D0B9F1020F03D099
:10228000B9F1030F70D12DE0288900EA0704BC42A0
:102290001CD1B8F1010F02D12889A0432881094837
:1022A00000680485029801F0E7FD002030702046A8
:1022B000AFE7000069000020580000206D000020FA
:1022C0006E000020780000206A0000204B463A464D
:1022D00004A92846CDF800A0FFF744FF029801F0BA
:1022E000CBFD6AE0288900EA07047CB1B8F1010F50
:1022F00002D12889A0432881D74800680485029824
:1023000001F0BAFD00203070204682E74B463A4685
:1023100004A92846CDF800A0FFF724FF029801F099
:10232000ABFD4AE0288927EA0004BC420FD1B8F18E
:10233000010F02D1288920432881C74800680485FD
:10234000029801F099FD00203070204661E74B466D
:102350003A4604A92846CDF800A0FFF703FF0298EB
:1023600001F08AFD29E000E01FE0288927EA000447
:102370007CB1B8F1010F02D1288920432881B648E9
:1023800000680485029801F077FD00203070204637
:102390003FE74B463A4604A92846CDF800A0FFF790
:1023A000E1FE029801F068FD07E0029801F064FD8B
:1023B00000246F20307020462BE700BFFFF794FA0F
:1023C00001F056FD0290A448006890F82D0020B35B
:1023D000A148006890F82D00039000209E490968EC
:1023E00081F82D0004A8FFF790FD00209A490968A4
:1023F00081F82C00029801F03FFD00240398012889
:1024000005D0022802D10E20307003E000BF0A2060
:10241000307000BF00BF2046FBE68F480068048D87
:10242000B8F1010F1ED1B9F1000F0ED0B9F1010FB3
:102430000CD0B9F1020F03D0B9F1030F0AD100E0BB
:1024400000BF2889A04328810BE000BF28892043D2
:10245000288106E0029801F00FFD6F203070002007
:10246000D7E600BF029801F007FD0020307020463B
:10247000CFE670B5002501F0FBFC05467648006804
:10248000048D284601F0F8FC204670BD2DE9FC5F64
:102490000446894692461E46002000900EB9BDE8CB
:1024A000FC9F1CB96E2030700020F8E720780528CA
:1024B00003D0012030700020F1E701F0D9FC00903A
:1024C000BAF1000F03D0BAF1010F0AD104E020895C
:1024D00020EA090020810BE0208940EA09002081E0
:1024E00006E0009801F0C8FC712030700020D6E7AB
:1024F00000BF4FF0000B656855E0A87C40B3012891
:1025000038D0022802D0032844D111E02089298A3A
:1025100000EA0107288AB84209D139462846FFF760
:1025200006FD8046B8F1010F01D14FF0010B38E0F4
:102530002089298A00EA01074FB139462846FFF76A
:10254000F6FC8046B8F1010F01D14FF0010B28E0F5
:10255000288A218920EA0107288AB84209D1394608
:102560002846FFF7E4FC8046B8F1010F01D14FF097
:10257000010B16E0288A218920EA01074FB139466C
:102580002846FFF7D4FC8046B8F1010F01D14FF087
:10259000010B06E0009801F06FFC6F203070002006
:1025A0007DE700BF2D68002DA7D1009801F064FCE5
:1025B000BBF1010F01D1FFF797F901F059FC009031
:1025C00020890190009801F057FC0020307001989C
:1025D00065E72DE9F04105460C46002714B90020B7
:1025E000BDE8F0811DB96E2020700020F8E7287842
:1025F000052803D0012020700020F1E701F038FC0D
:1026000007462E89384601F037FC002020703046FE
:10261000E6E770B58C211148FFF713F80F4C04F171
:102620001C0600250AE00020207066603F20A07292
:102630000021E1721C341C36681C85B2042DF2DBCB
:102640000020207060603F20A0720021E1720348EA
:102650000349086070BD000078000020400B002096
:102660005800002070B5044600260CB9002070BD4B
:102670002078012801D00020F9E701F0F9FB064697
:10268000656800206060304601F0F6FB2846EEE702
:1026900070B505460026FA480078002801DD0020C4
:1026A00070BD01F0E5FB0646F6480468006820B1FD
:1026B000F44800684068F3490860304601F0DCFBEC
:1026C0005CB1012020700020208165603F20E07314
:1026D000002121742046FFF78DFA2046E0E72DE91E
:1026E000F0470446884615464FF0000915B92046C4
:1026F000BDE8F0871CB9042028702046F8E7207850
:10270000012803D0012028702046F1E7DC4800783A
:10271000002803DD0F2028702046E9E701F0A8FB20
:102720008146A07A08B1012700E00027B8F1000F28
:1027300003D0B8F1010F3ED11BE09FB93F20E073F9
:102740000021217400202070CE48006860600020C5
:102750002081CC480460484601F08EFB00202870A0
:10276000002605E0484601F087FB492028702646F0
:1027700028E005E00023022219462046FFF7C7F9AA
:10278000A07A0028F6D13F20E073002121740020B8
:102790002070BC480068606000202081B948046057
:1027A000484601F069FB012F01D1FFF79DF8002099
:1027B0002870002606E0484601F05EFB07202870DE
:1027C000264600BF00BF304692E72DE9F04105469E
:1027D0000F4614464FF0000814B90020BDE8F08100
:1027E0001DB9042020700020F8E72878012803D0C4
:1027F000012020700020F1E7A1480078002803DDC7
:10280000022020700020E9E79F480078002803DDBF
:102810000D2020700020E1E701F02AFB80466E6861
:1028200046B100206860404601F026FB0020207081
:102830003046D3E79548006890F82C0040F002003D
:102840009249096881F82C0000209049096881F8B4
:102850002D008E48006847852846FFF793F94046CB
:1028600001F00AFBFFF740F801F002FB80468748C1
:10287000006890F82D0020B101280DD002280AD15F
:1028800005E082480068066A002020700DE00026FE
:102890000E20207009E000BF29467C480068FFF741
:1028A00021F900260A20207000BF00BF00207749D0
:1028B000096881F82C007549096881F82D00734971
:1028C0000968C861714909680862404601F0D4FA94
:1028D000304683E72DE9F04105460F4614464FF098
:1028E000000814B90020BDE8F0811DB90420207053
:1028F0000020F8E72878012803D00120207000206C
:10290000F1E701F0B5FA8046A87A20B300267FB13E
:10291000012F0CD107E002231A4600212846FFF7B9
:10292000F6F8701CC6B2A87A0028F4D109E000BFFE
:1029300002231A4600212846FFF7E9F8701CC6B2A8
:1029400000BF00BF404601F097FAFEF7CDFF0E2012
:1029500020703046C7E7404601F08EFA0020207014
:1029600000BFC0E770B504460D4600260CB9042030
:1029700070BD0DB90320FBE72078012801D00120AC
:10298000F6E701F075FA0646A07A60B1002302224C
:1029900029462046FFF7BBF8304601F06DFAFEF7F6
:1029A000A3FF0020E4E7606820B1304601F064FA3C
:1029B0001420DDE76560304601F05EFA0020D7E7BD
:1029C0002DE9F04104460D461646002714B90420AF
:1029D000BDE8F0810DB90320FAE72078012801D085
:1029E0000120F5E701F044FA0746A07AE8B116F0B5
:1029F000010F0AD005E00023022229462046FFF7F6
:102A000086F8A07A0028F6D105E0002302222946A4
:102A10002046FFF77CF8384601F02EFA16F0040F36
:102A200001D1FEF761FF0020D2E7606820B138468F
:102A300001F022FA1420CBE76560384601F01CFA59
:102A40000020C5E72DE9F04704460D464FF0000988
:102A500014B90420BDE8F0870DB90920FAE7207801
:102A6000012801D00120F5E701F002FA8146A07AA1
:102A7000287204F10B0705F1040800260EE000009F
:102A800069000020540000206A0000207800002027
:102A900017F8010B08F8010B701CC6B2042EF7DB07
:102AA00060682860484601F0E7F90020D2E700009E
:102AB0002DE9F84F06460F4690461C460020009030
:102AC0000CB9BDE8F88F1EB9622020700020F8E72D
:102AD00016F0030F03D0622020700020F1E7022FD0
:102AE00003D25B2020700020EBE7B8F1040F03D283
:102AF0005C2020700020E4E701F0BAF900908B48D8
:102B00000568006820B18948006840688749086006
:102B1000009801F0B1F91DB95A2020700020D0E7CB
:102B2000B14606EB080A4FF0000B05E0C9F800A01B
:102B3000D146C2440BF1010B781E5845F6D800204F
:102B4000C9F800002E606E602F61EF60C5F8088044
:102B500020702846B5E72DE9F04104460D460027D0
:102B600015B90020BDE8F0811CB960202870002054
:102B7000F8E701F07DF90746206960B166683068C2
:102B800060602069401E2061384601F075F9002020
:102B900028703046E6E7384601F06EF95D2028706F
:102BA0000020DFE72DE9F04105460E4614460027D8
:102BB00014B90020BDE8F0811DB96020207000200C
:102BC000F8E71EB90C2020700020F3E75848007881
:102BD000002803DD112020700020EBE701F048F908
:102BE000074605F114013046FEF7F6FB80463846ED
:102BF00001F042F9002020704046DBE72DE9F0416A
:102C000005460E4614464FF000080CB9BDE8F081A9
:102C100015B960202070F9E716B90C202070F5E78F
:102C200043480078002802DD12202070EEE701F012
:102C30001FF980463046FEF71CFC07460F2F05DDC6
:102C4000404601F019F963202070DFE7314605F1B5
:102C50001400FEF7C1FB404601F00EF90020207081
:102C600000BFD3E770B504460D4600260CB96020BE
:102C700070BD0DB95F20FBE701F0FAF80646D4E914
:102C80000310884204D3304601F0F6F85E20EFE7E7
:102C90006068286065602069401C2061304601F052
:102CA000EBF80020E4E770B505460C4600260DB9A8
:102CB000602070BD0CB96120FBE701F0D9F8064631
:102CC0002868206068686060A868A060E868E060C4
:102CD00028692061304601F0CFF8D4E90301401A99
:102CE00060610020E5E770B5B4211248FEF7A9FC49
:102CF000104C00250DE0681C00EBC0000D4901EBF5
:102D0000800060603F202075002161752434681CBC
:102D100085B2042DEFDB002060603F20207500218C
:102D2000617504480149086070BD00008C000020F6
:102D3000690000207C1600202DE9F04106460D4672
:102D40004FF0000815B90020BDE8F0811EB904203D
:102D500028700020F8E73078022803D0012028707E
:102D60000020F1E701F084F880467468E08A0028CA
:102D70000FDD2169081D20610F68E08A401EE08296
:102D8000A1682069884201D1606820610020287014
:102D900002E01F2028700027404601F06DF83846F9
:102DA000D2E72DE9F04106460F464FF00008FE48F5
:102DB0000078002802DD0020BDE8F08101F058F81D
:102DC0008046FA480468006820B1F8480068406806
:102DD000F6490860404601F04FF80CB301F048F89E
:102DE0008046F3480568E5B100680068F04908606E
:102DF000404601F041F86E6006EB8700A860EE6087
:102E00002E61AF820020E882022020700020208105
:102E100065603F20E073002121742046FEF7EAFE42
:102E200008E0E24800686060E0480460404601F065
:102E300023F800242046BFE72DE9F04704468946E1
:102E400015464FF0000A15B92046BDE8F0871CB9B9
:102E5000042028702046F8E72078022803D00120BB
:102E600028702046F1E7D0480078002803DD0F20C5
:102E700028702046E9E700F0FBFF8246A07A10B1F7
:102E80004FF0010801E04FF00008B9F1000F03D046
:102E9000B9F1010F4DD123E0B8F1000F19D13F2056
:102EA000E073002121746668C14800683060C04842
:102EB000066000202070BD4800686060002020810E
:102EC000BA480460504600F0D7FF00202870002761
:102ED00005E0504600F0D0FF4920287027462FE03B
:102EE00005E00023042219462046FEF710FEA07AD2
:102EF0000028F6D13F20E073002121746668AC48B9
:102F000000683060AA48066000202070A74800686A
:102F1000606000202081A5480460504600F0ACFFAE
:102F2000B8F1010F01D1FEF7DFFC00202870002767
:102F300006E0504600F0A0FF07202870274600BF9B
:102F400000BF384681E770B5054600260DB904205C
:102F500070BD2878022801D00120F9E700F088FF31
:102F600006466C686068E060606820610020E0826E
:102F7000304600F081FF0020EAE72DE9F0470646E1
:102F8000884615464FF0000915B90020BDE8F087C6
:102F90001EB9042028700020F8E73078022803D0FA
:102FA000012028700020F1E77F480078002803DD29
:102FB000022028700020E9E77E480078002803DD21
:102FC0000D2028700020E1E700F052FF8146746870
:102FD000E08A002813DD2169081D20610F68E08A5E
:102FE000401EE082A1682069884201D160682061AA
:102FF000484600F041FF002028703846C6E76E487A
:10300000006890F82C0040F004006B49096881F8D2
:103010002C0000206849096881F82D006648006886
:10302000A0F82A803046FEF7ADFD484600F024FFA8
:10303000FEF75AFC00F01CFF81465F48006890F8DC
:103040002D0020B101280DD002280AD105E05A48F0
:103050000068076A002028700DE000270E20287005
:1030600009E000BF314654480068FEF73BFD0027E9
:103070000A20287000BF00BF00204F49096881F86E
:103080002C004D49096881F82D004B490968C86139
:10309000494909680862484600F0EEFE384675E77F
:1030A0002DE9F04105460F4614464FF0000814B9CB
:1030B0000020BDE8F0811DB9042020700020F8E751
:1030C0002878022803D0012020700020F1E700F0CA
:1030D000CFFE8046A87A20B300267FB1012F0CD105
:1030E00007E00223042200212846FEF710FD701C91
:1030F000C6B2A87A0028F4D109E000BF0223042256
:1031000000212846FEF703FD701CC6B200BF00BFB9
:10311000404600F0B1FEFEF7E7FB0E20207030467F
:10312000C7E7404600F0A8FE0020207000BFC0E7BF
:103130002DE9F04105460E46002715B90420BDE8EB
:10314000F0812878022801D00120F8E700F090FEF5
:103150000746A87A60B10023042231462846FEF7CC
:10316000D6FC384600F088FEFEF7BEFB0020E6E7FE
:103170006C68E08AA18A884204DB384600F07CFE55
:103180001E20DCE7E168081DE0600E60E08A401C5C
:10319000E082D4E90210884201D16068E0603846DC
:1031A00000F06AFE0020CAE76900002054000020F9
:1031B000900000206A000020780000202DE9F041F6
:1031C00005460E46002715B90420BDE8F081287891
:1031D000022801D00120F8E700F04AFE0746A87A4D
:1031E00060B10023042231462846FEF790FC3846A1
:1031F00000F042FEFEF778FB0020E6E76C68E08A0C
:10320000A18A884204DB384600F036FE1E20DCE747
:1032100061682069884201D1A06820612069001F8F
:10322000206120690660E08A401CE082384600F098
:1032300023FE0020C9E72DE9F04105460F4616465A
:103240004FF0000815B90420BDE8F0812878022865
:1032500001D00120F8E700F00BFE8046A87AE8B123
:1032600016F0010F0AD005E0002304223946284653
:10327000FEF74DFCA87A0028F6D105E000230422D1
:1032800039462846FEF743FC404600F0F5FD16F0AF
:10329000040F01D1FEF728FB0020D5E76C68E08A17
:1032A000A18A884204DB404600F0E6FD1E20CBE701
:1032B00016F0020F0BD061682069884201D1A06826
:1032C00020612069001F20612069076009E0E16832
:1032D000081DE0600F60D4E90210884201D16068E7
:1032E000E060E08A401CE082404600F0C5FD00201E
:1032F000AAE72DE9F04705460C464FF0000A15B93C
:103300000420BDE8F0870CB90920FAE728780228E4
:1033100001D00120F5E700F0ABFD8246A87A2073CA
:1033200005F10B0804F10809002705E018F8010B66
:1033300009F8010B781CC7B2042FF7DB6E68F08A1E
:10334000002803DD30690068206001E00020206073
:10335000F08AA080B08AE080504600F08DFD002009
:10336000CFE770B560210A48FEF76BF9084C04F10D
:103370001806002504E0266018341836681C85B24B
:10338000032DF8DB0020206001480249086070BD71
:1033900030170020900000202DE9FF5F81460F4686
:1033A00000200090B9F11F0F06DBB9F1FF0F03D029
:1033B0002A2004B0BDE8F09F1F2F01DB2A20F8E788
:1033C00000F056FD0090F94850F8270020B1009811
:1033D00000F052FD2820ECE7B9F1FF0F03D1F448CB
:1033E000006890F82E90F14850F8294024B90098D0
:1033F00000F042FD2920DCE7012C04D1009800F008
:103400003BFD4320D5E74FEAE70807F007000390AC
:10341000012000FA08F000F0FF0A01210398814022
:1034200001F0FF0B0020E14941F82900084640F86F
:10343000274014F8306FA07802906078A4F130042F
:103440000190DC48815D019801421CD0D948805D23
:1034500001998843D74988550846805D28B9D648E0
:10346000007802998843D4490870D348007840EA2C
:103470000A00D1490870CF4810F8080040EA0B0054
:10348000CC4901F80800E569E5B105F10B00805D64
:103490000199884305F10B0188550846805D18B9EC
:1034A000A87A02998843A872A87A40EA0A00A8720A
:1034B00005F10B0010F8080040EA0B0005F10B01C4
:1034C00001F8080084F82E7084F83080039884F89E
:1034D0002F0084F832A084F831B0009800F0CCFCC2
:1034E000B6480078012801D1FEF7FEF9002060E718
:1034F0002DE9FE4F06460F4690461C464FF0000948
:103500001F2C02DD2A20BDE8FE8F00F0B1FC8146B1
:10351000AB480078002804DD484600F0ADFC3C20B4
:10352000F1E7A24850F8240060BB01209F4941F810
:103530002400484600F0A0FC0023424639463046AD
:1035400000F046FC824600200090019003460246AF
:10355000514602902046FEF765FB054635B997486F
:10356000007801280CD1FEF7BFF909E000F080FCDB
:10357000814600208D4941F82400484600F07CFC3B
:103580002846C0E7484600F077FC2820BBE712F049
:10359000010F08D012F0020F05D002E0491E0023EF
:1035A00008C00029FAD170472DE9F04F85B0814657
:1035B0008A4693461C46DDE90F78129D0020039051
:1035C0001F2C03DD2A2005B0BDE8F08F00F050FC71
:1035D00003907B480078002804DD039800F04CFC41
:1035E0003C20F0E7714850F8240088BB01206F4967
:1035F00041F82400039800F03FFC2A464146384633
:10360000FFF7C5FF2B465A465146484600F0E0FBFF
:1036100004901198CDE9008002953A4620460E9B11
:103620000499FEF7FFFA064636B964480078012887
:103630000CD1FEF759F909E000F01AFC03900020C4
:103640005A4941F82400039800F016FC3046BAE7C6
:10365000FFE7039800F010FC2820B4E72DE9F041C3
:103660000546002756480078002802DD4020BDE8C6
:10367000F0811F2D01D13E20F9E71F2D03DBFF2D27
:1036800001D02A20F3E700F0F3FB0746FF2D03D11A
:103690004748006890F82E50444850F8254024B917
:1036A000384600F0E9FB4320E1E7012C04D138461D
:1036B00000F0E2FB3D20DAE714F8300F3D49085CEA
:1036C0006178884321783B4A505414F830091146F8
:1036D000085C30B994F8321037480078884336498E
:1036E0000870E06918B12046E169FEF7FBF9666AE7
:1036F00016B13046FEF709FC0020608584F82C00E6
:1037000084F82D002F480078FF2804D22D48007837
:10371000401C2C490870384600F0AEFBFEF7E1F97A
:1037200000F0A6FB074627480078002804DD25485E
:103730000078401E23490870204600F046FB2248CE
:103740000078401E204908700020184941F82500E3
:10375000A06930B90020616988611C49606908600E
:1037600005E0D4E905014861D4E9051088611848ED
:1037700000686061164804603F2084F8480000211A
:1037800049200155384600F077FB0C4800780128A5
:1037900001D1FEF7A9F8002069E72DE9F0410446C0
:1037A00000271F2C16D13E20BDE8F081CC0F002051
:1037B000780000206E0000206D00002072000020C4
:1037C000690000206A0000207300002084000020AF
:1037D0007C0000201F2C03DBFF2C01D02A20E3E714
:1037E000FF2C0BD100F044FB0746F248006890F82C
:1037F0003360384600F040FB3046D5E700F038FB38
:103800000746ED4850F8245025B9384600F034FBFF
:103810004320C9E7012D04D1384600F02DFB3D209F
:10382000C2E73F2085F83300384600F025FB002032
:10383000BAE72DE9F04705460F4614464FF0000859
:1038400014B90020BDE8F0871F2D05DDFF2D03D042
:103850002A2020700020F5E71FB90C2020700020DE
:10386000F0E7D6480078002803DD11202070002002
:10387000E8E700F0FDFA8046FF2D03D1CD4800684F
:1038800090F82E50CC4850F8256036B9404600F0EC
:10389000F3FA432020700020D4E7012E06D14046E1
:1038A00000F0EAFA432020700020CBE706F148013F
:1038B0003846FDF791FD8146404600F0DDFA0020D4
:1038C00020704846BEE72DE9F04705460F461446EE
:1038D0004FF000090CB9BDE8F0871F2D04DDFF2D66
:1038E00002D02A202070F6E717B90C202070F2E7EA
:1038F000B2480078002802DD12202070EBE700F0CB
:10390000B7FA8146FF2D03D1AA48006890F82E50DF
:10391000A94850F825602EB9484600F0ADFA43207A
:103920002070D8E7012E05D1484600F0A5FA4320C3
:103930002070D0E73846FDF79CFD8046B8F10F0FA8
:1039400005DD484600F098FA41202070C3E739466B
:1039500006F14800FDF740FD484600F08DFA0020D2
:10396000207000BFB7E770B5054600261F2D01DBAC
:103970002A2070BD00F07CFA06468F4850F825409A
:1039800024B9304600F078FA4620F2E7012C04D141
:10399000304600F071FA4320EBE794F82C0010F069
:1039A000080F2FD014F82C0F20F00800207014F806
:1039B0002C0910BB608DE0B904F13004A078804977
:1039C000097840EA01007E49087020787D49085C4A
:1039D000617840EA010014F830197A4A50543046B0
:1039E00000F04AFA78480078012809D1FDF77CFFF9
:1039F00006E0304600F040FA02E0304600F03CFAC3
:103A00000020B6E7304600F037FA4420B1E72DE950
:103A1000F04706460C464FF0000A1F2E04DDFF2E2D
:103A200002D02A20BDE8F0870CB90920FAE700206F
:103A30002060606000F01CFA8246FF2E03D15D48D2
:103A4000006890F82E605C4850F8265025B9504622
:103A500000F012FA4320E5E7012D04D1504600F0B2
:103A60000BFA4320DEE7288A10F0010F04D15046FC
:103A700000F002FA4520D5E70027D5F80C90D5F8DC
:103A80000880504600F0F8F900E07F1C58F8041B4D
:103A90000029FAD0B8002060A9EB07008000606020
:103AA0000020BFE72DE9F04105464FF000081F2D2B
:103AB00002D14720BDE8F0811F2D03DBFF2D01D08F
:103AC0002A20F7E700F0D4F98046FF2D05D13948C8
:103AD000006890F82E50012608E03648006890F8FB
:103AE0002E00A84201D1012600E00026324850F8FD
:103AF000254024B9404600F0BFF94820DAE7012C00
:103B000004D1404600F0B8F94320D3E794F8307070
:103B10002C48C05D94F8311088432A49C85508469E
:103B2000C05D30B994F832102548007888432449A4
:103B3000087094F82C0040F0080084F82C004046EF
:103B400000F09AF9012E01D1FDF7CEFE0020B1E779
:103B50002DE9F04104460E4600271F2C04DDFF2C02
:103B600002D02A20BDE8F0810EB90920FAE700F062
:103B70007FF90746FF2C03D10E48006890F82E40CD
:103B80000D4850F8245025B9384600F075F9292021
:103B9000E8E7012D04D1384600F06EF94320E1E753
:103BA000582229463046FEF733F8384600F064F9CB
:103BB0000020D7E778000020CC0F0020690000200B
:103BC0006D0000206E0000207200002070B50546D8
:103BD000002676480078002800DD70BD002D23DD2A
:103BE00000F046F906467248006890F83040714887
:103BF000005D6F49096891F8311088436D49085597
:103C00000846005D40B96A48006890F832106A487A
:103C100000788843684908706548006845853046E3
:103C200000F02AF9FDF760FE00BFD6E72DE9F04766
:103C300080460D4616461C465C480078002802DD8A
:103C40005520BDE8F087B8F1000F04D11DB916B9B1
:103C50000CB95420F5E73B2D01DD5120F1E73B2E57
:103C600001DD5220EDE7B4F57A7F01DB5320E8E770
:103C70004FF47A7060434FF47A71B0FBF1F14FF476
:103C8000616008FB00F0C5EB051200EB82003044D8
:103C900000EB4002C2EBC01001EBC0074FEA17492E
:103CA000BFB23846FFF792FF0BE04FF40040FFF73A
:103CB0008DFF4FF40040FFF789FFA9F101001FFAC3
:103CC00080F9B9F1000FF0DC0020BAE770B50546C5
:103CD00000261F2D01DB2A2070BD00F0C9F8064622
:103CE000364850F8254024B9304600F0C5F8432046
:103CF000F2E7012C04D1304600F0BEF84320EBE798
:103D0000608D20B9304600F0B7F85020E4E700207D
:103D1000608594F82C0010F0370F09D014F82C0FA0
:103D200020F03700207001206070A4F12C0402E024
:103D3000002084F82D0094F82C0010F0080F18D102
:103D400004F13004A0781C49097840EA01001A49BE
:103D5000087020781749085C617840EA010014F87F
:103D60003019144A5054304600F086F8FDF7BCFD77
:103D700002E0304600F080F80020ADE770B5002585
:103D800000F076F805460E480468284600F074F8FE
:103D9000204670BD70B50446002500F069F8054660
:103DA00007480460284600F067F870BD69000020ED
:103DB000780000206E0000206D000020CC0F002055
:103DC00094000020704770477047704770477047F5
:103DD00070B5044610464FF080750560051F2846F3
:103DE0002C606FF00106051F28462E604FF012363A
:103DF000051F28462E604FF00336051F28462E600B
:103E00004FF00236051F28462E607610051F284603
:103E10002E60051F284629604FF01136051F2846E1
:103E20002E604FF01036051F28462E604FF00936E1
:103E3000051F28462E604FF00836051F28462E60C5
:103E40004FF00736051F28462E604FF00636051F37
:103E500028462E604FF00536051F28462E604FF08D
:103E60000436051F28462E6070BD704770477047A6
:103E7000EFF3108072B6704780F3108870471D48CA
:103E80004FF0FF010170002080F309881A480121DA
:103E900001701A484FF08051016062B6FEE7174882
:103EA0004FF080510160704714484FF0805101601D
:103EB000704772B6EFF3098028B1203880E8F00F20
:103EC0000F490968086000B50E4880475DF804EBAB
:103ED0000D480E490A78027009480D490A680260C7
:103EE000106890E8F00F203080F309884EF0040E3F
:103EF00062B6704722ED00E07200002004ED00E0A1
:103F0000780000206B3E00086B0000206C00002051
:103F10008000002070B5064600F0DCF80468054615
:103F20000A220021304600F018F82C6070BD30B530
:103F30000B46014600202022012409E021FA02F567
:103F40009D4205D303FA02F5491B04FA02F5284401
:103F5000151EA2F10102F1DC30BD2DE9F0470F463C
:103F6000914680460446002614F8015B2DB100F00E
:103F70003FF80068405DC007F6D12B2D02D02D2DF3
:103F800018D0641E4A463946204600F035F827B15D
:103F90003968A14201D1C7F8008071054FF00204D1
:103FA0000BD54042002803DD00F094F80460A00720
:103FB000BDE8F08746F48066E4E70028F8DA00F010
:103FC00089F804606FF00040F2E70000064C074DEE
:103FD00006E0E06840F0010394E8070098471034D9
:103FE000AC42F6D3FCF7A8F8D4430008F443000829
:103FF00000487047D04300082DE9F05F8246007802
:1040000000278B4615460AF10104B946302801D035
:104010009DB113E014F8010B0127782803D058282C
:1040200001D045B10AE00DB1102D07D100271025B0
:1040300014F8010B02E0082500E00A250026B0462E
:104040000EE005FB080005FB06F1012701EB104619
:104050001FFA80F8B6F5803F00D3B94614F8010B7B
:10406000294600F018F80028EBDABBF1000F05D064
:104070000FB1641E00E05446CBF80040B9F1000FC8
:1040800006D000F027F802210160C81EBDE8F09FAD
:1040900048EA0640FAE73A2800D2303820F02002F9
:1040A000412A01D3A2F13700884201D34FF0FF30FB
:1040B000704700000FB4054B10B503A9044A0298DD
:1040C00000F01CF810BC5DF814FB0000B10D0008F6
:1040D00098000020004870479C00002002E008C8BB
:1040E000121F08C1002AFAD170477047002001E072
:1040F00001C1121F002AFBD1704700002DE9FF4FBC
:1041000089B004469B46002596E0252833D1002738
:10411000641C4D4AB84601212378203B01FA03F084
:10412000104202D00743641CF6E720782E2819D1EC
:1041300014F8010F47F004072A280ED06FF02F0261
:104140002078A0F1300109290CD808EB880102EB96
:10415000410100EB0108641CF2E70A98641C50F866
:10416000048B0A90207800286AD0642808D0692837
:1041700006D075281FD05A460B9990476D1C5AE0FF
:104180000A994FF00A0901C90A91002804DAC0F11E
:1041900000004FF02D0102E0390504D52B218DF8E8
:1041A0002010012104E0F90701D02021F7E70021C8
:1041B0008A4608AE0CE00A994FF00A0901C90A9133
:1041C000F5E74946FFF7B3FE01F1300106F8011D9E
:1041D0000028F6D1ADEB060000F12009780701D4E4
:1041E0004FF00108C84502DDA8EB090000E00020FF
:1041F0008046002706E008A85A46C05D0B99904704
:104200006D1C7F1C5745F6DB04E030205A460B99A5
:1042100090476D1CB8F10001A8F10108F5DC05E03C
:1042200016F8010B5A460B9990476D1CB9F1000125
:10423000A9F10109F4DC641C207800287FF465AF43
:104240000DB02846BDE8F08F0928010000000100EC
:10425000020001000300010002000100040001004F
:10426000020001000300010002000100050001003E
:10427000020001000300010002000100040001002F
:10428000020001000300010002000100060001001D
:10429000020001000300010002000100040001000F
:1042A00002000100030001000200010005000100FE
:1042B00002000100030001000200010004000100EF
:1042C00002000100030001000200010007000100DC
:1042D00002000100030001000200010004000100CF
:1042E00002000100030001000200010005000100BE
:1042F00002000100030001000200010004000100AF
:10430000020001000300010002000100060001009C
:10431000020001000300010002000100040001008E
:10432000020001000300010002000100050001007D
:10433000020001000300010002000100040001006E
:1043400002000100030001000200010000404040A3
:104350004040404040404141414141404040404058
:104360004040404040404040404040404005020204
:1043700002020202020202020202020202202020C3
:10438000202020202020200202020202020290901F
:10439000909090901010101010101010101010101D
:1043A0001010101010101010020202020202888871
:1043B000888888880808080808080808080808087D
:1043C0000808080808080808020202024000000065
:1043D0004D430008F443000800000020A000000046
:1043E000DC40000894440008A0000020F01A0000FF
:1043F000EC40000800000000000000000000000089
:1044000000000000000000000000000000000000AC
:104410000000000000000000000000000102030492
:1044200001020304060708090204060800A24A0460
:104430000000000000000000010203040607080954
:10444000000000000000000000000000000000006C
:10445000000000000000000000000000000000005C
:10446000000000000000000000000000000000004C
:10447000000000000000000000000000000000003C
:10448000000000000000000000000000000000002C
:044490000000000028
:0400000508000145A9
:00000001FF
